{"contracts/Project.sol":{"Project":{"abi":[{"inputs":[{"internalType":"address","name":"_creator","type":"address"},{"internalType":"uint256","name":"_minimumContribution","type":"uint256"},{"internalType":"uint256","name":"_deadline","type":"uint256"},{"internalType":"uint256","name":"_targetContribution","type":"uint256"},{"internalType":"string","name":"_projectTitle","type":"string"},{"internalType":"string","name":"_projectDes","type":"string"}],"stateMutability":"nonpayable","type":"constructor"},{"anonymous":false,"inputs":[{"indexed":false,"internalType":"uint256","name":"requestId","type":"uint256"},{"indexed":false,"internalType":"string","name":"description","type":"string"},{"indexed":false,"internalType":"uint256","name":"amount","type":"uint256"},{"indexed":false,"internalType":"uint256","name":"noOfVotes","type":"uint256"},{"indexed":false,"internalType":"bool","name":"isCompleted","type":"bool"},{"indexed":false,"internalType":"address","name":"recipient","type":"address"}],"name":"AmountWithdrawSuccessful","type":"event"},{"anonymous":false,"inputs":[{"indexed":false,"internalType":"address","name":"contributor","type":"address"},{"indexed":false,"internalType":"uint256","name":"amount","type":"uint256"},{"indexed":false,"internalType":"uint256","name":"currentTotal","type":"uint256"}],"name":"FundingReceived","type":"event"},{"anonymous":false,"inputs":[{"indexed":false,"internalType":"uint256","name":"requestId","type":"uint256"},{"indexed":false,"internalType":"string","name":"description","type":"string"},{"indexed":false,"internalType":"uint256","name":"amount","type":"uint256"},{"indexed":false,"internalType":"uint256","name":"noOfVotes","type":"uint256"},{"indexed":false,"internalType":"bool","name":"isCompleted","type":"bool"},{"indexed":false,"internalType":"address","name":"recipient","type":"address"}],"name":"WithdrawRequestCreated","type":"event"},{"anonymous":false,"inputs":[{"indexed":false,"internalType":"address","name":"voter","type":"address"},{"indexed":false,"internalType":"uint256","name":"totalVote","type":"uint256"}],"name":"WithdrawVote","type":"event"},{"inputs":[{"internalType":"address","name":"_contributor","type":"address"}],"name":"contribute","outputs":[],"stateMutability":"payable","type":"function"},{"inputs":[{"internalType":"address","name":"","type":"address"}],"name":"contributors","outputs":[{"internalType":"uint256","name":"","type":"uint256"}],"stateMutability":"view","type":"function"},{"inputs":[{"internalType":"string","name":"_description","type":"string"},{"internalType":"uint256","name":"_amount","type":"uint256"},{"internalType":"address payable","name":"_recipient","type":"address"}],"name":"createWithdrawRequest","outputs":[],"stateMutability":"nonpayable","type":"function"},{"inputs":[],"name":"creator","outputs":[{"internalType":"address payable","name":"","type":"address"}],"stateMutability":"view","type":"function"},{"inputs":[],"name":"deadline","outputs":[{"internalType":"uint256","name":"","type":"uint256"}],"stateMutability":"view","type":"function"},{"inputs":[],"name":"getContractBalance","outputs":[{"internalType":"uint256","name":"","type":"uint256"}],"stateMutability":"view","type":"function"},{"inputs":[],"name":"getProjectDetails","outputs":[{"internalType":"address payable","name":"projectStarter","type":"address"},{"internalType":"uint256","name":"minContribution","type":"uint256"},{"internalType":"uint256","name":"projectDeadline","type":"uint256"},{"internalType":"uint256","name":"goalAmount","type":"uint256"},{"internalType":"uint256","name":"completedTime","type":"uint256"},{"internalType":"uint256","name":"currentAmount","type":"uint256"},{"internalType":"string","name":"title","type":"string"},{"internalType":"string","name":"desc","type":"string"},{"internalType":"enum Project.State","name":"currentState","type":"uint8"},{"internalType":"uint256","name":"balance","type":"uint256"}],"stateMutability":"view","type":"function"},{"inputs":[],"name":"minimumContribution","outputs":[{"internalType":"uint256","name":"","type":"uint256"}],"stateMutability":"view","type":"function"},{"inputs":[],"name":"noOfContributors","outputs":[{"internalType":"uint256","name":"","type":"uint256"}],"stateMutability":"view","type":"function"},{"inputs":[],"name":"numOfWithdrawRequests","outputs":[{"internalType":"uint256","name":"","type":"uint256"}],"stateMutability":"view","type":"function"},{"inputs":[],"name":"projectDes","outputs":[{"internalType":"string","name":"","type":"string"}],"stateMutability":"view","type":"function"},{"inputs":[],"name":"projectTitle","outputs":[{"internalType":"string","name":"","type":"string"}],"stateMutability":"view","type":"function"},{"inputs":[],"name":"raisedAmount","outputs":[{"internalType":"uint256","name":"","type":"uint256"}],"stateMutability":"view","type":"function"},{"inputs":[],"name":"requestRefund","outputs":[{"internalType":"bool","name":"","type":"bool"}],"stateMutability":"nonpayable","type":"function"},{"inputs":[],"name":"state","outputs":[{"internalType":"enum Project.State","name":"","type":"uint8"}],"stateMutability":"view","type":"function"},{"inputs":[],"name":"targetContribution","outputs":[{"internalType":"uint256","name":"","type":"uint256"}],"stateMutability":"view","type":"function"},{"inputs":[{"internalType":"uint256","name":"_requestId","type":"uint256"}],"name":"voteWithdrawRequest","outputs":[],"stateMutability":"nonpayable","type":"function"},{"inputs":[{"internalType":"uint256","name":"_requestId","type":"uint256"}],"name":"withdrawRequestedAmount","outputs":[],"stateMutability":"nonpayable","type":"function"},{"inputs":[{"internalType":"uint256","name":"","type":"uint256"}],"name":"withdrawRequests","outputs":[{"internalType":"string","name":"description","type":"string"},{"internalType":"uint256","name":"amount","type":"uint256"},{"internalType":"uint256","name":"noOfVotes","type":"uint256"},{"internalType":"bool","name":"isCompleted","type":"bool"},{"internalType":"address payable","name":"recipient","type":"address"}],"stateMutability":"view","type":"function"}],"evm":{"bytecode":{"linkReferences":{},"object":"6080604052346200037757620014de803803806200001d816200037c565b92833981019060c081830312620003775780516001600160a01b0381169081900362000377576020928383015191604084015190606085015160808601519560018060401b03968781116200037757856200007a918301620003b8565b9460a08201518881116200037757620000949201620003b8565b6008805460ff191690556000600b81905580546001600160a01b0319169093178355600195865560029390935560035582518581116200036357600654938585811c9516801562000358575b8886101462000344578190601f95868111620002f0575b5088908683116001146200028a5784926200027e575b5050600019600383901b1c191690851b176006555b81519485116200026a576007548481811c911680156200025f575b878210146200024b5783811162000202575b5085928511600114620001995793945084929190836200018d575b50501b916000199060031b1c1916176007555b6040516110b390816200042b8239f35b0151925038806200016a565b6007815285812093958591601f198316915b88838310620001e75750505010620001cd575b505050811b016007556200017d565b015160001960f88460031b161c19169055388080620001be565b858701518855909601959485019487935090810190620001ab565b600782528682208480880160051c82019289891062000241575b0160051c019085905b828110620002355750506200014f565b83815501859062000225565b925081926200021c565b634e487b7160e01b82526022600452602482fd5b90607f16906200013d565b634e487b7160e01b81526041600452602490fd5b0151905038806200010d565b600685528985208894509190601f198416865b8c828210620002d95750508411620002bf575b505050811b0160065562000122565b015160001960f88460031b161c19169055388080620002b0565b8385015186558b979095019493840193016200029d565b909150600684528884208680850160051c8201928b86106200033a575b918991869594930160051c01915b8281106200032b575050620000f7565b8681558594508991016200031b565b925081926200030d565b634e487b7160e01b83526022600452602483fd5b94607f1694620000e0565b634e487b7160e01b82526041600452602482fd5b600080fd5b6040519190601f01601f191682016001600160401b03811183821017620003a257604052565b634e487b7160e01b600052604160045260246000fd5b919080601f84011215620003775782516001600160401b038111620003a257602090620003ee601f8201601f191683016200037c565b92818452828287010111620003775760005b8181106200041657508260009394955001015290565b85810183015184820184015282016200040056fe60806040908082526004918236101561001757600080fd5b60009260e0928435841c90816302d05d3f14610cf95750806303c29d5814610cdb5780631f6d494214610ca057806329dcb0cf14610c815780634e260f6f14610c625780634e695a3714610b365780636f9fb98a14610b1b57806373e888fd14610978578063752e19f914610728578063937e09b114610709578063992a7dfb14610612578063a46752ae14610358578063b40141bf14610339578063b82c86d61461031a578063c19d93fb146102f1578063c3e20c9f146102b8578063c59ee1dc14610299578063d5cef1331461019d5763ff3a9c7e146100f857600080fd5b3461019957836003193601126101995761018f61018360209560018060a01b039054169460015493610176600254916003549054610134610e4c565b9161013d610d8f565b9460ff600854169a479a81519e8f9e8f90815201528c015260608b01524260808b015260a08a01526101408060c08b0152890190610ee5565b9187830390880152610ee5565b92610100850190610f25565b6101208301520390f35b8380fd5b8483833461029557826003193601126102955760ff6008541660038110156102825760016101cb9114610f48565b6101d86002544210610f84565b33835260096020528183205415610232575033825260096020528180808084812054818115610229575b3390f11561021f5760209133815260098352818120555160018152f35b51903d90823e3d90fd5b506108fc610202565b6020608492519162461bcd60e51b8352820152602560248201527f596f7520646f6e74206861766520616e7920636f6e747269627574656420616d6044820152646f756e742160d81b6064820152fd5b634e487b7160e01b845260218252602484fd5b8280fd5b8483833461029557826003193601126102955760209250549051908152f35b8483346102ed57816003193601126102ed576102e9906102d6610e4c565b9051918291602083526020830190610ee5565b0390f35b5080fd5b8483346102ed57816003193601126102ed5760209061031860ff6008541691518092610f25565bf35b8483346102ed57816003193601126102ed576020906003549051908152f35b8483346102ed57816003193601126102ed57602090600b549051908152f35b508382346102ed5760603660031901126102ed5782359267ffffffffffffffff9182851161019957366023860112156101995784820135928084116105ff57815192602094601f19976103b2878a601f8501160187610d57565b81865236602483830101116105fb57818892602489930183890137860101526044356001600160a01b038181169360243593918584036105f7576103fa908a54163314610ff9565b60ff6008541660038110156105e45760026104159114610f48565b600b5490818a52600a895261042c878b2092610fc7565b600b5587519081116105d1576104428254610d1d565b601f811161058e575b50889a601f821160011461050f5750808a9b7f9883a4e4f8698e4cc93bafb8d0d2376cb8c51dd322cb9fd80d02c691fcdea5039b91610504575b508160011b916000199060031b1c19161781555b60018101849055600281018a90550180546001600160a81b03191660089290921b610100600160a81b0316919091179055600b54835190815260c09581018690529485946104e991860190610ee5565b9284015285606084015285608084015260a08301520390a180f35b90508801518c610485565b81169a828b52898b209b8b5b81811061057757509b82916001937f9883a4e4f8698e4cc93bafb8d0d2376cb8c51dd322cb9fd80d02c691fcdea5039d9e1061055e575b5050811b018155610499565b8a015160001960f88460031b161c191690558c80610552565b8a8301518e556001909d019c918b01918b0161051b565b828b52898b20601f830160051c8101918b84106105c7575b601f0160051c01905b8181106105bc575061044b565b8b81556001016105af565b90915081906105a6565b634e487b7160e01b8a526041835260248afd5b634e487b7160e01b8a526021835260248afd5b8980fd5b8780fd5b634e487b7160e01b855260418352602485fd5b8483833461029557602090816003193601126101995780358452600a82528284208351938582549061064382610d1d565b9081885260019283811690816000146106eb57506001146106b7575b505061067086610690980387610d57565b82015492600283015492015492815196879660a0885260a0880190610ee5565b9486015284015260ff81161515606084015260081c6001600160a01b031660808301520390f35b9097508381528581205b8882106106d857508601850196506106708661065f565b80548883018801529086019082016106c1565b60ff1916888a01525050151560051b8601850196506106708661065f565b8483346102ed57816003193601126102ed576020906001549051908152f35b50903461019957602090816003193601126109745782359260018060a01b0392610756848854163314610ff9565b60ff6008541660038110156109615760026107719114610f48565b848752600a8152828720908282019384549760ff891661092257600284019283549560055496600197881c116108c257508a8080808989019d8e54908d839183156108b8575b60081c1690f1156108ae5760c09060ff199a878c8a5416178099555494549584519a8b5282828c01528c9b8154908c6107ef83610d1d565b9501859052818a1691821561088557505060011461083d575b8c60008051602061105e8339815191528c808f8e8e8e8e8e8e8701526060860152608085015260081c1660a08301520390a180f35b909293999a508b52818b20918b925b8284106108725750505088010196958160008051602061105e8339815191528838610808565b8054848d0186015292810192870161084c565b16858d0152505050151560051b88010197508160008051602061105e8339815191528838610808565b82513d8c823e3d90fd5b6108fc92506107b7565b60849184519162461bcd60e51b8352820152603660248201527f4174206c656173742035302520636f6e7472696275746f72206e65656420746f604482015275081d9bdd1948199bdc881d1a1a5cc81c995c5d595cdd60521b6064820152fd5b815162461bcd60e51b8152808601849052601960248201527814995c5d595cdd08185b1c9958591e4818dbdb5c1b195d1959603a1b6044820152606490fd5b634e487b7160e01b885260218352602488fd5b8480fd5b5060209250366003190183136101995780356001600160a01b03811692908390036109745760ff600854166003811015610b08576109b69015610f48565b6109c36002544210610f84565b6001543410610ac6578285526009845280852054610a7857916060917f5cdc4ab8d637538ead6cc1904d4160343656c8c82bd266635cfd31ac008fffe093610a0c600554610fc7565b60055582875260098652808720610a24348254610fec565b9055610a31348354610fec565b958680935581519384523490840152820152a160035411610a5c57600260ff19600854161760085580f35b6002544211610a685780f35b600160ff19600854161760085580f35b5162461bcd60e51b81529081018390526024808201527f436f6e7472696275746f722068617320616c726561647920636f6e74726962756044820152637465642160e01b6064820152608490fd5b5162461bcd60e51b8152908101839052601f60248201527f436f6e747269627574696f6e20616d6f756e7420697320746f6f206c6f7721006044820152606490fd5b634e487b7160e01b865260218352602486fd5b8483346102ed57816003193601126102ed5751478152602090f35b508382346102ed5760208060031936011261029557338352600981528183205415610c205783358352600a81528183206003810133855280835260ff8486205416610be857906002913386528352838520600160ff198254161790550180549060018201809211610bd5577fa2925e4595bf873fa82c22a1a89809777347023bf2b502d32710157a5eb8199c949550819055825191338352820152a180f35b634e487b7160e01b855260118652602485fd5b835162461bcd60e51b81528087018490526012602482015271596f7520616c726561647920766f7465642160701b6044820152606490fd5b8390606492519162461bcd60e51b8352820152601a60248201527f4f6e6c7920636f6e7472696275746f722063616e20766f7465210000000000006044820152fd5b8483346102ed57816003193601126102ed576020906005549051908152f35b8483346102ed57816003193601126102ed576020906002549051908152f35b8483833461029557602036600319011261029557356001600160a01b0381169081900361029557828291602094526009845220549051908152f35b8483346102ed57816003193601126102ed576102e9906102d6610d8f565b8590346102ed57816003193601126102ed5790546001600160a01b03168152602090f35b90600182811c92168015610d4d575b6020831014610d3757565b634e487b7160e01b600052602260045260246000fd5b91607f1691610d2c565b90601f8019910116810190811067ffffffffffffffff821117610d7957604052565b634e487b7160e01b600052604160045260246000fd5b6040519060008260075491610da383610d1d565b808352600193808516908115610e2b5750600114610dcb575b50610dc992500383610d57565b565b600760009081527fa66cc928b5edb82af9bd49922954155ab7b0942694bea4ce44661d9a8736c68894602093509091905b818310610e13575050610dc9935082010138610dbc565b85548884018501529485019487945091830191610dfc565b9050610dc994506020925060ff191682840152151560051b82010138610dbc565b6040519060008260065491610e6083610d1d565b808352600193808516908115610e2b5750600114610e855750610dc992500383610d57565b600660009081527ff652222313e28459528d920b65115c16c04f3efc82aaedc97be59f3f377c0d3f94602093509091905b818310610ecd575050610dc9935082010138610dbc565b85548884018501529485019487945091830191610eb6565b919082519283825260005b848110610f11575050826000602080949584010152601f8019910116010190565b602081830181015184830182015201610ef0565b906003821015610f325752565b634e487b7160e01b600052602160045260246000fd5b15610f4f57565b60405162461bcd60e51b815260206004820152600d60248201526c496e76616c696420737461746560981b6044820152606490fd5b15610f8b57565b60405162461bcd60e51b8152602060048201526014602482015273446561646c696e6520686173207061737365642160601b6044820152606490fd5b6000198114610fd65760010190565b634e487b7160e01b600052601160045260246000fd5b91908201809211610fd657565b1561100057565b60405162461bcd60e51b815260206004820152602f60248201527f596f7520646f6e7420686176652061636365737320746f20706572666f726d2060448201526e74686973206f7065726174696f6e2160881b6064820152608490fdfe2af8d60b878c5e8de57c8ff96e03c6cfab6de26b47e989757345cc1dceaac998a264697066735822122005512b931061866341d875bda04395ec13f9045eb24a3380b7b2a4bfd609a0fc64736f6c63430008130033","opcodes":"PUSH1 0x80 PUSH1 0x40 MSTORE CALLVALUE PUSH3 0x377 JUMPI PUSH3 0x14DE DUP1 CODESIZE SUB DUP1 PUSH3 0x1D DUP2 PUSH3 0x37C JUMP JUMPDEST SWAP3 DUP4 CODECOPY DUP2 ADD SWAP1 PUSH1 0xC0 DUP2 DUP4 SUB SLT PUSH3 0x377 JUMPI DUP1 MLOAD PUSH1 0x1 PUSH1 0x1 PUSH1 0xA0 SHL SUB DUP2 AND SWAP1 DUP2 SWAP1 SUB PUSH3 0x377 JUMPI PUSH1 0x20 SWAP3 DUP4 DUP4 ADD MLOAD SWAP2 PUSH1 0x40 DUP5 ADD MLOAD SWAP1 PUSH1 0x60 DUP6 ADD MLOAD PUSH1 0x80 DUP7 ADD MLOAD SWAP6 PUSH1 0x1 DUP1 PUSH1 0x40 SHL SUB SWAP7 DUP8 DUP2 GT PUSH3 0x377 JUMPI DUP6 PUSH3 0x7A SWAP2 DUP4 ADD PUSH3 0x3B8 JUMP JUMPDEST SWAP5 PUSH1 0xA0 DUP3 ADD MLOAD DUP9 DUP2 GT PUSH3 0x377 JUMPI PUSH3 0x94 SWAP3 ADD PUSH3 0x3B8 JUMP JUMPDEST PUSH1 0x8 DUP1 SLOAD PUSH1 0xFF NOT AND SWAP1 SSTORE PUSH1 0x0 PUSH1 0xB DUP2 SWAP1 SSTORE DUP1 SLOAD PUSH1 0x1 PUSH1 0x1 PUSH1 0xA0 SHL SUB NOT AND SWAP1 SWAP4 OR DUP4 SSTORE PUSH1 0x1 SWAP6 DUP7 SSTORE PUSH1 0x2 SWAP4 SWAP1 SWAP4 SSTORE PUSH1 0x3 SSTORE DUP3 MLOAD DUP6 DUP2 GT PUSH3 0x363 JUMPI PUSH1 0x6 SLOAD SWAP4 DUP6 DUP6 DUP2 SHR SWAP6 AND DUP1 ISZERO PUSH3 0x358 JUMPI JUMPDEST DUP9 DUP7 LT EQ PUSH3 0x344 JUMPI DUP2 SWAP1 PUSH1 0x1F SWAP6 DUP7 DUP2 GT PUSH3 0x2F0 JUMPI JUMPDEST POP DUP9 SWAP1 DUP7 DUP4 GT PUSH1 0x1 EQ PUSH3 0x28A JUMPI DUP5 SWAP3 PUSH3 0x27E JUMPI JUMPDEST POP POP PUSH1 0x0 NOT PUSH1 0x3 DUP4 SWAP1 SHL SHR NOT AND SWAP1 DUP6 SHL OR PUSH1 0x6 SSTORE JUMPDEST DUP2 MLOAD SWAP5 DUP6 GT PUSH3 0x26A JUMPI PUSH1 0x7 SLOAD DUP5 DUP2 DUP2 SHR SWAP2 AND DUP1 ISZERO PUSH3 0x25F JUMPI JUMPDEST DUP8 DUP3 LT EQ PUSH3 0x24B JUMPI DUP4 DUP2 GT PUSH3 0x202 JUMPI JUMPDEST POP DUP6 SWAP3 DUP6 GT PUSH1 0x1 EQ PUSH3 0x199 JUMPI SWAP4 SWAP5 POP DUP5 SWAP3 SWAP2 SWAP1 DUP4 PUSH3 0x18D JUMPI JUMPDEST POP POP SHL SWAP2 PUSH1 0x0 NOT SWAP1 PUSH1 0x3 SHL SHR NOT AND OR PUSH1 0x7 SSTORE JUMPDEST PUSH1 0x40 MLOAD PUSH2 0x10B3 SWAP1 DUP2 PUSH3 0x42B DUP3 CODECOPY RETURN JUMPDEST ADD MLOAD SWAP3 POP CODESIZE DUP1 PUSH3 0x16A JUMP JUMPDEST PUSH1 0x7 DUP2 MSTORE DUP6 DUP2 KECCAK256 SWAP4 SWAP6 DUP6 SWAP2 PUSH1 0x1F NOT DUP4 AND SWAP2 JUMPDEST DUP9 DUP4 DUP4 LT PUSH3 0x1E7 JUMPI POP POP POP LT PUSH3 0x1CD JUMPI JUMPDEST POP POP POP DUP2 SHL ADD PUSH1 0x7 SSTORE PUSH3 0x17D JUMP JUMPDEST ADD MLOAD PUSH1 0x0 NOT PUSH1 0xF8 DUP5 PUSH1 0x3 SHL AND SHR NOT AND SWAP1 SSTORE CODESIZE DUP1 DUP1 PUSH3 0x1BE JUMP JUMPDEST DUP6 DUP8 ADD MLOAD DUP9 SSTORE SWAP1 SWAP7 ADD SWAP6 SWAP5 DUP6 ADD SWAP5 DUP8 SWAP4 POP SWAP1 DUP2 ADD SWAP1 PUSH3 0x1AB JUMP JUMPDEST PUSH1 0x7 DUP3 MSTORE DUP7 DUP3 KECCAK256 DUP5 DUP1 DUP9 ADD PUSH1 0x5 SHR DUP3 ADD SWAP3 DUP10 DUP10 LT PUSH3 0x241 JUMPI JUMPDEST ADD PUSH1 0x5 SHR ADD SWAP1 DUP6 SWAP1 JUMPDEST DUP3 DUP2 LT PUSH3 0x235 JUMPI POP POP PUSH3 0x14F JUMP JUMPDEST DUP4 DUP2 SSTORE ADD DUP6 SWAP1 PUSH3 0x225 JUMP JUMPDEST SWAP3 POP DUP2 SWAP3 PUSH3 0x21C JUMP JUMPDEST PUSH4 0x4E487B71 PUSH1 0xE0 SHL DUP3 MSTORE PUSH1 0x22 PUSH1 0x4 MSTORE PUSH1 0x24 DUP3 REVERT JUMPDEST SWAP1 PUSH1 0x7F AND SWAP1 PUSH3 0x13D JUMP JUMPDEST PUSH4 0x4E487B71 PUSH1 0xE0 SHL DUP2 MSTORE PUSH1 0x41 PUSH1 0x4 MSTORE PUSH1 0x24 SWAP1 REVERT JUMPDEST ADD MLOAD SWAP1 POP CODESIZE DUP1 PUSH3 0x10D JUMP JUMPDEST PUSH1 0x6 DUP6 MSTORE DUP10 DUP6 KECCAK256 DUP9 SWAP5 POP SWAP2 SWAP1 PUSH1 0x1F NOT DUP5 AND DUP7 JUMPDEST DUP13 DUP3 DUP3 LT PUSH3 0x2D9 JUMPI POP POP DUP5 GT PUSH3 0x2BF JUMPI JUMPDEST POP POP POP DUP2 SHL ADD PUSH1 0x6 SSTORE PUSH3 0x122 JUMP JUMPDEST ADD MLOAD PUSH1 0x0 NOT PUSH1 0xF8 DUP5 PUSH1 0x3 SHL AND SHR NOT AND SWAP1 SSTORE CODESIZE DUP1 DUP1 PUSH3 0x2B0 JUMP JUMPDEST DUP4 DUP6 ADD MLOAD DUP7 SSTORE DUP12 SWAP8 SWAP1 SWAP6 ADD SWAP5 SWAP4 DUP5 ADD SWAP4 ADD PUSH3 0x29D JUMP JUMPDEST SWAP1 SWAP2 POP PUSH1 0x6 DUP5 MSTORE DUP9 DUP5 KECCAK256 DUP7 DUP1 DUP6 ADD PUSH1 0x5 SHR DUP3 ADD SWAP3 DUP12 DUP7 LT PUSH3 0x33A JUMPI JUMPDEST SWAP2 DUP10 SWAP2 DUP7 SWAP6 SWAP5 SWAP4 ADD PUSH1 0x5 SHR ADD SWAP2 JUMPDEST DUP3 DUP2 LT PUSH3 0x32B JUMPI POP POP PUSH3 0xF7 JUMP JUMPDEST DUP7 DUP2 SSTORE DUP6 SWAP5 POP DUP10 SWAP2 ADD PUSH3 0x31B JUMP JUMPDEST SWAP3 POP DUP2 SWAP3 PUSH3 0x30D JUMP JUMPDEST PUSH4 0x4E487B71 PUSH1 0xE0 SHL DUP4 MSTORE PUSH1 0x22 PUSH1 0x4 MSTORE PUSH1 0x24 DUP4 REVERT JUMPDEST SWAP5 PUSH1 0x7F AND SWAP5 PUSH3 0xE0 JUMP JUMPDEST PUSH4 0x4E487B71 PUSH1 0xE0 SHL DUP3 MSTORE PUSH1 0x41 PUSH1 0x4 MSTORE PUSH1 0x24 DUP3 REVERT JUMPDEST PUSH1 0x0 DUP1 REVERT JUMPDEST PUSH1 0x40 MLOAD SWAP2 SWAP1 PUSH1 0x1F ADD PUSH1 0x1F NOT AND DUP3 ADD PUSH1 0x1 PUSH1 0x1 PUSH1 0x40 SHL SUB DUP2 GT DUP4 DUP3 LT OR PUSH3 0x3A2 JUMPI PUSH1 0x40 MSTORE JUMP JUMPDEST PUSH4 0x4E487B71 PUSH1 0xE0 SHL PUSH1 0x0 MSTORE PUSH1 0x41 PUSH1 0x4 MSTORE PUSH1 0x24 PUSH1 0x0 REVERT JUMPDEST SWAP2 SWAP1 DUP1 PUSH1 0x1F DUP5 ADD SLT ISZERO PUSH3 0x377 JUMPI DUP3 MLOAD PUSH1 0x1 PUSH1 0x1 PUSH1 0x40 SHL SUB DUP2 GT PUSH3 0x3A2 JUMPI PUSH1 0x20 SWAP1 PUSH3 0x3EE PUSH1 0x1F DUP3 ADD PUSH1 0x1F NOT AND DUP4 ADD PUSH3 0x37C JUMP JUMPDEST SWAP3 DUP2 DUP5 MSTORE DUP3 DUP3 DUP8 ADD ADD GT PUSH3 0x377 JUMPI PUSH1 0x0 JUMPDEST DUP2 DUP2 LT PUSH3 0x416 JUMPI POP DUP3 PUSH1 0x0 SWAP4 SWAP5 SWAP6 POP ADD ADD MSTORE SWAP1 JUMP JUMPDEST DUP6 DUP2 ADD DUP4 ADD MLOAD DUP5 DUP3 ADD DUP5 ADD MSTORE DUP3 ADD PUSH3 0x400 JUMP INVALID PUSH1 0x80 PUSH1 0x40 SWAP1 DUP1 DUP3 MSTORE PUSH1 0x4 SWAP2 DUP3 CALLDATASIZE LT ISZERO PUSH2 0x17 JUMPI PUSH1 0x0 DUP1 REVERT JUMPDEST PUSH1 0x0 SWAP3 PUSH1 0xE0 SWAP3 DUP5 CALLDATALOAD DUP5 SHR SWAP1 DUP2 PUSH4 0x2D05D3F EQ PUSH2 0xCF9 JUMPI POP DUP1 PUSH4 0x3C29D58 EQ PUSH2 0xCDB JUMPI DUP1 PUSH4 0x1F6D4942 EQ PUSH2 0xCA0 JUMPI DUP1 PUSH4 0x29DCB0CF EQ PUSH2 0xC81 JUMPI DUP1 PUSH4 0x4E260F6F EQ PUSH2 0xC62 JUMPI DUP1 PUSH4 0x4E695A37 EQ PUSH2 0xB36 JUMPI DUP1 PUSH4 0x6F9FB98A EQ PUSH2 0xB1B JUMPI DUP1 PUSH4 0x73E888FD EQ PUSH2 0x978 JUMPI DUP1 PUSH4 0x752E19F9 EQ PUSH2 0x728 JUMPI DUP1 PUSH4 0x937E09B1 EQ PUSH2 0x709 JUMPI DUP1 PUSH4 0x992A7DFB EQ PUSH2 0x612 JUMPI DUP1 PUSH4 0xA46752AE EQ PUSH2 0x358 JUMPI DUP1 PUSH4 0xB40141BF EQ PUSH2 0x339 JUMPI DUP1 PUSH4 0xB82C86D6 EQ PUSH2 0x31A JUMPI DUP1 PUSH4 0xC19D93FB EQ PUSH2 0x2F1 JUMPI DUP1 PUSH4 0xC3E20C9F EQ PUSH2 0x2B8 JUMPI DUP1 PUSH4 0xC59EE1DC EQ PUSH2 0x299 JUMPI DUP1 PUSH4 0xD5CEF133 EQ PUSH2 0x19D JUMPI PUSH4 0xFF3A9C7E EQ PUSH2 0xF8 JUMPI PUSH1 0x0 DUP1 REVERT JUMPDEST CALLVALUE PUSH2 0x199 JUMPI DUP4 PUSH1 0x3 NOT CALLDATASIZE ADD SLT PUSH2 0x199 JUMPI PUSH2 0x18F PUSH2 0x183 PUSH1 0x20 SWAP6 PUSH1 0x1 DUP1 PUSH1 0xA0 SHL SUB SWAP1 SLOAD AND SWAP5 PUSH1 0x1 SLOAD SWAP4 PUSH2 0x176 PUSH1 0x2 SLOAD SWAP2 PUSH1 0x3 SLOAD SWAP1 SLOAD PUSH2 0x134 PUSH2 0xE4C JUMP JUMPDEST SWAP2 PUSH2 0x13D PUSH2 0xD8F JUMP JUMPDEST SWAP5 PUSH1 0xFF PUSH1 0x8 SLOAD AND SWAP11 SELFBALANCE SWAP11 DUP2 MLOAD SWAP15 DUP16 SWAP15 DUP16 SWAP1 DUP2 MSTORE ADD MSTORE DUP13 ADD MSTORE PUSH1 0x60 DUP12 ADD MSTORE TIMESTAMP PUSH1 0x80 DUP12 ADD MSTORE PUSH1 0xA0 DUP11 ADD MSTORE PUSH2 0x140 DUP1 PUSH1 0xC0 DUP12 ADD MSTORE DUP10 ADD SWAP1 PUSH2 0xEE5 JUMP JUMPDEST SWAP2 DUP8 DUP4 SUB SWAP1 DUP9 ADD MSTORE PUSH2 0xEE5 JUMP JUMPDEST SWAP3 PUSH2 0x100 DUP6 ADD SWAP1 PUSH2 0xF25 JUMP JUMPDEST PUSH2 0x120 DUP4 ADD MSTORE SUB SWAP1 RETURN JUMPDEST DUP4 DUP1 REVERT JUMPDEST DUP5 DUP4 DUP4 CALLVALUE PUSH2 0x295 JUMPI DUP3 PUSH1 0x3 NOT CALLDATASIZE ADD SLT PUSH2 0x295 JUMPI PUSH1 0xFF PUSH1 0x8 SLOAD AND PUSH1 0x3 DUP2 LT ISZERO PUSH2 0x282 JUMPI PUSH1 0x1 PUSH2 0x1CB SWAP2 EQ PUSH2 0xF48 JUMP JUMPDEST PUSH2 0x1D8 PUSH1 0x2 SLOAD TIMESTAMP LT PUSH2 0xF84 JUMP JUMPDEST CALLER DUP4 MSTORE PUSH1 0x9 PUSH1 0x20 MSTORE DUP2 DUP4 KECCAK256 SLOAD ISZERO PUSH2 0x232 JUMPI POP CALLER DUP3 MSTORE PUSH1 0x9 PUSH1 0x20 MSTORE DUP2 DUP1 DUP1 DUP1 DUP5 DUP2 KECCAK256 SLOAD DUP2 DUP2 ISZERO PUSH2 0x229 JUMPI JUMPDEST CALLER SWAP1 CALL ISZERO PUSH2 0x21F JUMPI PUSH1 0x20 SWAP2 CALLER DUP2 MSTORE PUSH1 0x9 DUP4 MSTORE DUP2 DUP2 KECCAK256 SSTORE MLOAD PUSH1 0x1 DUP2 MSTORE RETURN JUMPDEST MLOAD SWAP1 RETURNDATASIZE SWAP1 DUP3 RETURNDATACOPY RETURNDATASIZE SWAP1 REVERT JUMPDEST POP PUSH2 0x8FC PUSH2 0x202 JUMP JUMPDEST PUSH1 0x20 PUSH1 0x84 SWAP3 MLOAD SWAP2 PUSH3 0x461BCD PUSH1 0xE5 SHL DUP4 MSTORE DUP3 ADD MSTORE PUSH1 0x25 PUSH1 0x24 DUP3 ADD MSTORE PUSH32 0x596F7520646F6E74206861766520616E7920636F6E747269627574656420616D PUSH1 0x44 DUP3 ADD MSTORE PUSH5 0x6F756E7421 PUSH1 0xD8 SHL PUSH1 0x64 DUP3 ADD MSTORE REVERT JUMPDEST PUSH4 0x4E487B71 PUSH1 0xE0 SHL DUP5 MSTORE PUSH1 0x21 DUP3 MSTORE PUSH1 0x24 DUP5 REVERT JUMPDEST DUP3 DUP1 REVERT JUMPDEST DUP5 DUP4 DUP4 CALLVALUE PUSH2 0x295 JUMPI DUP3 PUSH1 0x3 NOT CALLDATASIZE ADD SLT PUSH2 0x295 JUMPI PUSH1 0x20 SWAP3 POP SLOAD SWAP1 MLOAD SWAP1 DUP2 MSTORE RETURN JUMPDEST DUP5 DUP4 CALLVALUE PUSH2 0x2ED JUMPI DUP2 PUSH1 0x3 NOT CALLDATASIZE ADD SLT PUSH2 0x2ED JUMPI PUSH2 0x2E9 SWAP1 PUSH2 0x2D6 PUSH2 0xE4C JUMP JUMPDEST SWAP1 MLOAD SWAP2 DUP3 SWAP2 PUSH1 0x20 DUP4 MSTORE PUSH1 0x20 DUP4 ADD SWAP1 PUSH2 0xEE5 JUMP JUMPDEST SUB SWAP1 RETURN JUMPDEST POP DUP1 REVERT JUMPDEST DUP5 DUP4 CALLVALUE PUSH2 0x2ED JUMPI DUP2 PUSH1 0x3 NOT CALLDATASIZE ADD SLT PUSH2 0x2ED JUMPI PUSH1 0x20 SWAP1 PUSH2 0x318 PUSH1 0xFF PUSH1 0x8 SLOAD AND SWAP2 MLOAD DUP1 SWAP3 PUSH2 0xF25 JUMP JUMPDEST RETURN JUMPDEST DUP5 DUP4 CALLVALUE PUSH2 0x2ED JUMPI DUP2 PUSH1 0x3 NOT CALLDATASIZE ADD SLT PUSH2 0x2ED JUMPI PUSH1 0x20 SWAP1 PUSH1 0x3 SLOAD SWAP1 MLOAD SWAP1 DUP2 MSTORE RETURN JUMPDEST DUP5 DUP4 CALLVALUE PUSH2 0x2ED JUMPI DUP2 PUSH1 0x3 NOT CALLDATASIZE ADD SLT PUSH2 0x2ED JUMPI PUSH1 0x20 SWAP1 PUSH1 0xB SLOAD SWAP1 MLOAD SWAP1 DUP2 MSTORE RETURN JUMPDEST POP DUP4 DUP3 CALLVALUE PUSH2 0x2ED JUMPI PUSH1 0x60 CALLDATASIZE PUSH1 0x3 NOT ADD SLT PUSH2 0x2ED JUMPI DUP3 CALLDATALOAD SWAP3 PUSH8 0xFFFFFFFFFFFFFFFF SWAP2 DUP3 DUP6 GT PUSH2 0x199 JUMPI CALLDATASIZE PUSH1 0x23 DUP7 ADD SLT ISZERO PUSH2 0x199 JUMPI DUP5 DUP3 ADD CALLDATALOAD SWAP3 DUP1 DUP5 GT PUSH2 0x5FF JUMPI DUP2 MLOAD SWAP3 PUSH1 0x20 SWAP5 PUSH1 0x1F NOT SWAP8 PUSH2 0x3B2 DUP8 DUP11 PUSH1 0x1F DUP6 ADD AND ADD DUP8 PUSH2 0xD57 JUMP JUMPDEST DUP2 DUP7 MSTORE CALLDATASIZE PUSH1 0x24 DUP4 DUP4 ADD ADD GT PUSH2 0x5FB JUMPI DUP2 DUP9 SWAP3 PUSH1 0x24 DUP10 SWAP4 ADD DUP4 DUP10 ADD CALLDATACOPY DUP7 ADD ADD MSTORE PUSH1 0x44 CALLDATALOAD PUSH1 0x1 PUSH1 0x1 PUSH1 0xA0 SHL SUB DUP2 DUP2 AND SWAP4 PUSH1 0x24 CALLDATALOAD SWAP4 SWAP2 DUP6 DUP5 SUB PUSH2 0x5F7 JUMPI PUSH2 0x3FA SWAP1 DUP11 SLOAD AND CALLER EQ PUSH2 0xFF9 JUMP JUMPDEST PUSH1 0xFF PUSH1 0x8 SLOAD AND PUSH1 0x3 DUP2 LT ISZERO PUSH2 0x5E4 JUMPI PUSH1 0x2 PUSH2 0x415 SWAP2 EQ PUSH2 0xF48 JUMP JUMPDEST PUSH1 0xB SLOAD SWAP1 DUP2 DUP11 MSTORE PUSH1 0xA DUP10 MSTORE PUSH2 0x42C DUP8 DUP12 KECCAK256 SWAP3 PUSH2 0xFC7 JUMP JUMPDEST PUSH1 0xB SSTORE DUP8 MLOAD SWAP1 DUP2 GT PUSH2 0x5D1 JUMPI PUSH2 0x442 DUP3 SLOAD PUSH2 0xD1D JUMP JUMPDEST PUSH1 0x1F DUP2 GT PUSH2 0x58E JUMPI JUMPDEST POP DUP9 SWAP11 PUSH1 0x1F DUP3 GT PUSH1 0x1 EQ PUSH2 0x50F JUMPI POP DUP1 DUP11 SWAP12 PUSH32 0x9883A4E4F8698E4CC93BAFB8D0D2376CB8C51DD322CB9FD80D02C691FCDEA503 SWAP12 SWAP2 PUSH2 0x504 JUMPI JUMPDEST POP DUP2 PUSH1 0x1 SHL SWAP2 PUSH1 0x0 NOT SWAP1 PUSH1 0x3 SHL SHR NOT AND OR DUP2 SSTORE JUMPDEST PUSH1 0x1 DUP2 ADD DUP5 SWAP1 SSTORE PUSH1 0x2 DUP2 ADD DUP11 SWAP1 SSTORE ADD DUP1 SLOAD PUSH1 0x1 PUSH1 0x1 PUSH1 0xA8 SHL SUB NOT AND PUSH1 0x8 SWAP3 SWAP1 SWAP3 SHL PUSH2 0x100 PUSH1 0x1 PUSH1 0xA8 SHL SUB AND SWAP2 SWAP1 SWAP2 OR SWAP1 SSTORE PUSH1 0xB SLOAD DUP4 MLOAD SWAP1 DUP2 MSTORE PUSH1 0xC0 SWAP6 DUP2 ADD DUP7 SWAP1 MSTORE SWAP5 DUP6 SWAP5 PUSH2 0x4E9 SWAP2 DUP7 ADD SWAP1 PUSH2 0xEE5 JUMP JUMPDEST SWAP3 DUP5 ADD MSTORE DUP6 PUSH1 0x60 DUP5 ADD MSTORE DUP6 PUSH1 0x80 DUP5 ADD MSTORE PUSH1 0xA0 DUP4 ADD MSTORE SUB SWAP1 LOG1 DUP1 RETURN JUMPDEST SWAP1 POP DUP9 ADD MLOAD DUP13 PUSH2 0x485 JUMP JUMPDEST DUP2 AND SWAP11 DUP3 DUP12 MSTORE DUP10 DUP12 KECCAK256 SWAP12 DUP12 JUMPDEST DUP2 DUP2 LT PUSH2 0x577 JUMPI POP SWAP12 DUP3 SWAP2 PUSH1 0x1 SWAP4 PUSH32 0x9883A4E4F8698E4CC93BAFB8D0D2376CB8C51DD322CB9FD80D02C691FCDEA503 SWAP14 SWAP15 LT PUSH2 0x55E JUMPI JUMPDEST POP POP DUP2 SHL ADD DUP2 SSTORE PUSH2 0x499 JUMP JUMPDEST DUP11 ADD MLOAD PUSH1 0x0 NOT PUSH1 0xF8 DUP5 PUSH1 0x3 SHL AND SHR NOT AND SWAP1 SSTORE DUP13 DUP1 PUSH2 0x552 JUMP JUMPDEST DUP11 DUP4 ADD MLOAD DUP15 SSTORE PUSH1 0x1 SWAP1 SWAP14 ADD SWAP13 SWAP2 DUP12 ADD SWAP2 DUP12 ADD PUSH2 0x51B JUMP JUMPDEST DUP3 DUP12 MSTORE DUP10 DUP12 KECCAK256 PUSH1 0x1F DUP4 ADD PUSH1 0x5 SHR DUP2 ADD SWAP2 DUP12 DUP5 LT PUSH2 0x5C7 JUMPI JUMPDEST PUSH1 0x1F ADD PUSH1 0x5 SHR ADD SWAP1 JUMPDEST DUP2 DUP2 LT PUSH2 0x5BC JUMPI POP PUSH2 0x44B JUMP JUMPDEST DUP12 DUP2 SSTORE PUSH1 0x1 ADD PUSH2 0x5AF JUMP JUMPDEST SWAP1 SWAP2 POP DUP2 SWAP1 PUSH2 0x5A6 JUMP JUMPDEST PUSH4 0x4E487B71 PUSH1 0xE0 SHL DUP11 MSTORE PUSH1 0x41 DUP4 MSTORE PUSH1 0x24 DUP11 REVERT JUMPDEST PUSH4 0x4E487B71 PUSH1 0xE0 SHL DUP11 MSTORE PUSH1 0x21 DUP4 MSTORE PUSH1 0x24 DUP11 REVERT JUMPDEST DUP10 DUP1 REVERT JUMPDEST DUP8 DUP1 REVERT JUMPDEST PUSH4 0x4E487B71 PUSH1 0xE0 SHL DUP6 MSTORE PUSH1 0x41 DUP4 MSTORE PUSH1 0x24 DUP6 REVERT JUMPDEST DUP5 DUP4 DUP4 CALLVALUE PUSH2 0x295 JUMPI PUSH1 0x20 SWAP1 DUP2 PUSH1 0x3 NOT CALLDATASIZE ADD SLT PUSH2 0x199 JUMPI DUP1 CALLDATALOAD DUP5 MSTORE PUSH1 0xA DUP3 MSTORE DUP3 DUP5 KECCAK256 DUP4 MLOAD SWAP4 DUP6 DUP3 SLOAD SWAP1 PUSH2 0x643 DUP3 PUSH2 0xD1D JUMP JUMPDEST SWAP1 DUP2 DUP9 MSTORE PUSH1 0x1 SWAP3 DUP4 DUP2 AND SWAP1 DUP2 PUSH1 0x0 EQ PUSH2 0x6EB JUMPI POP PUSH1 0x1 EQ PUSH2 0x6B7 JUMPI JUMPDEST POP POP PUSH2 0x670 DUP7 PUSH2 0x690 SWAP9 SUB DUP8 PUSH2 0xD57 JUMP JUMPDEST DUP3 ADD SLOAD SWAP3 PUSH1 0x2 DUP4 ADD SLOAD SWAP3 ADD SLOAD SWAP3 DUP2 MLOAD SWAP7 DUP8 SWAP7 PUSH1 0xA0 DUP9 MSTORE PUSH1 0xA0 DUP9 ADD SWAP1 PUSH2 0xEE5 JUMP JUMPDEST SWAP5 DUP7 ADD MSTORE DUP5 ADD MSTORE PUSH1 0xFF DUP2 AND ISZERO ISZERO PUSH1 0x60 DUP5 ADD MSTORE PUSH1 0x8 SHR PUSH1 0x1 PUSH1 0x1 PUSH1 0xA0 SHL SUB AND PUSH1 0x80 DUP4 ADD MSTORE SUB SWAP1 RETURN JUMPDEST SWAP1 SWAP8 POP DUP4 DUP2 MSTORE DUP6 DUP2 KECCAK256 JUMPDEST DUP9 DUP3 LT PUSH2 0x6D8 JUMPI POP DUP7 ADD DUP6 ADD SWAP7 POP PUSH2 0x670 DUP7 PUSH2 0x65F JUMP JUMPDEST DUP1 SLOAD DUP9 DUP4 ADD DUP9 ADD MSTORE SWAP1 DUP7 ADD SWAP1 DUP3 ADD PUSH2 0x6C1 JUMP JUMPDEST PUSH1 0xFF NOT AND DUP9 DUP11 ADD MSTORE POP POP ISZERO ISZERO PUSH1 0x5 SHL DUP7 ADD DUP6 ADD SWAP7 POP PUSH2 0x670 DUP7 PUSH2 0x65F JUMP JUMPDEST DUP5 DUP4 CALLVALUE PUSH2 0x2ED JUMPI DUP2 PUSH1 0x3 NOT CALLDATASIZE ADD SLT PUSH2 0x2ED JUMPI PUSH1 0x20 SWAP1 PUSH1 0x1 SLOAD SWAP1 MLOAD SWAP1 DUP2 MSTORE RETURN JUMPDEST POP SWAP1 CALLVALUE PUSH2 0x199 JUMPI PUSH1 0x20 SWAP1 DUP2 PUSH1 0x3 NOT CALLDATASIZE ADD SLT PUSH2 0x974 JUMPI DUP3 CALLDATALOAD SWAP3 PUSH1 0x1 DUP1 PUSH1 0xA0 SHL SUB SWAP3 PUSH2 0x756 DUP5 DUP9 SLOAD AND CALLER EQ PUSH2 0xFF9 JUMP JUMPDEST PUSH1 0xFF PUSH1 0x8 SLOAD AND PUSH1 0x3 DUP2 LT ISZERO PUSH2 0x961 JUMPI PUSH1 0x2 PUSH2 0x771 SWAP2 EQ PUSH2 0xF48 JUMP JUMPDEST DUP5 DUP8 MSTORE PUSH1 0xA DUP2 MSTORE DUP3 DUP8 KECCAK256 SWAP1 DUP3 DUP3 ADD SWAP4 DUP5 SLOAD SWAP8 PUSH1 0xFF DUP10 AND PUSH2 0x922 JUMPI PUSH1 0x2 DUP5 ADD SWAP3 DUP4 SLOAD SWAP6 PUSH1 0x5 SLOAD SWAP7 PUSH1 0x1 SWAP8 DUP9 SHR GT PUSH2 0x8C2 JUMPI POP DUP11 DUP1 DUP1 DUP1 DUP10 DUP10 ADD SWAP14 DUP15 SLOAD SWAP1 DUP14 DUP4 SWAP2 DUP4 ISZERO PUSH2 0x8B8 JUMPI JUMPDEST PUSH1 0x8 SHR AND SWAP1 CALL ISZERO PUSH2 0x8AE JUMPI PUSH1 0xC0 SWAP1 PUSH1 0xFF NOT SWAP11 DUP8 DUP13 DUP11 SLOAD AND OR DUP1 SWAP10 SSTORE SLOAD SWAP5 SLOAD SWAP6 DUP5 MLOAD SWAP11 DUP12 MSTORE DUP3 DUP3 DUP13 ADD MSTORE DUP13 SWAP12 DUP2 SLOAD SWAP1 DUP13 PUSH2 0x7EF DUP4 PUSH2 0xD1D JUMP JUMPDEST SWAP6 ADD DUP6 SWAP1 MSTORE DUP2 DUP11 AND SWAP2 DUP3 ISZERO PUSH2 0x885 JUMPI POP POP PUSH1 0x1 EQ PUSH2 0x83D JUMPI JUMPDEST DUP13 PUSH1 0x0 DUP1 MLOAD PUSH1 0x20 PUSH2 0x105E DUP4 CODECOPY DUP2 MLOAD SWAP2 MSTORE DUP13 DUP1 DUP16 DUP15 DUP15 DUP15 DUP15 DUP15 DUP15 DUP8 ADD MSTORE PUSH1 0x60 DUP7 ADD MSTORE PUSH1 0x80 DUP6 ADD MSTORE PUSH1 0x8 SHR AND PUSH1 0xA0 DUP4 ADD MSTORE SUB SWAP1 LOG1 DUP1 RETURN JUMPDEST SWAP1 SWAP3 SWAP4 SWAP10 SWAP11 POP DUP12 MSTORE DUP2 DUP12 KECCAK256 SWAP2 DUP12 SWAP3 JUMPDEST DUP3 DUP5 LT PUSH2 0x872 JUMPI POP POP POP DUP9 ADD ADD SWAP7 SWAP6 DUP2 PUSH1 0x0 DUP1 MLOAD PUSH1 0x20 PUSH2 0x105E DUP4 CODECOPY DUP2 MLOAD SWAP2 MSTORE DUP9 CODESIZE PUSH2 0x808 JUMP JUMPDEST DUP1 SLOAD DUP5 DUP14 ADD DUP7 ADD MSTORE SWAP3 DUP2 ADD SWAP3 DUP8 ADD PUSH2 0x84C JUMP JUMPDEST AND DUP6 DUP14 ADD MSTORE POP POP POP ISZERO ISZERO PUSH1 0x5 SHL DUP9 ADD ADD SWAP8 POP DUP2 PUSH1 0x0 DUP1 MLOAD PUSH1 0x20 PUSH2 0x105E DUP4 CODECOPY DUP2 MLOAD SWAP2 MSTORE DUP9 CODESIZE PUSH2 0x808 JUMP JUMPDEST DUP3 MLOAD RETURNDATASIZE DUP13 DUP3 RETURNDATACOPY RETURNDATASIZE SWAP1 REVERT JUMPDEST PUSH2 0x8FC SWAP3 POP PUSH2 0x7B7 JUMP JUMPDEST PUSH1 0x84 SWAP2 DUP5 MLOAD SWAP2 PUSH3 0x461BCD PUSH1 0xE5 SHL DUP4 MSTORE DUP3 ADD MSTORE PUSH1 0x36 PUSH1 0x24 DUP3 ADD MSTORE PUSH32 0x4174206C656173742035302520636F6E7472696275746F72206E65656420746F PUSH1 0x44 DUP3 ADD MSTORE PUSH22 0x81D9BDD1948199BDC881D1A1A5CC81C995C5D595CDD PUSH1 0x52 SHL PUSH1 0x64 DUP3 ADD MSTORE REVERT JUMPDEST DUP2 MLOAD PUSH3 0x461BCD PUSH1 0xE5 SHL DUP2 MSTORE DUP1 DUP7 ADD DUP5 SWAP1 MSTORE PUSH1 0x19 PUSH1 0x24 DUP3 ADD MSTORE PUSH25 0x14995C5D595CDD08185B1C9958591E4818DBDB5C1B195D1959 PUSH1 0x3A SHL PUSH1 0x44 DUP3 ADD MSTORE PUSH1 0x64 SWAP1 REVERT JUMPDEST PUSH4 0x4E487B71 PUSH1 0xE0 SHL DUP9 MSTORE PUSH1 0x21 DUP4 MSTORE PUSH1 0x24 DUP9 REVERT JUMPDEST DUP5 DUP1 REVERT JUMPDEST POP PUSH1 0x20 SWAP3 POP CALLDATASIZE PUSH1 0x3 NOT ADD DUP4 SGT PUSH2 0x199 JUMPI DUP1 CALLDATALOAD PUSH1 0x1 PUSH1 0x1 PUSH1 0xA0 SHL SUB DUP2 AND SWAP3 SWAP1 DUP4 SWAP1 SUB PUSH2 0x974 JUMPI PUSH1 0xFF PUSH1 0x8 SLOAD AND PUSH1 0x3 DUP2 LT ISZERO PUSH2 0xB08 JUMPI PUSH2 0x9B6 SWAP1 ISZERO PUSH2 0xF48 JUMP JUMPDEST PUSH2 0x9C3 PUSH1 0x2 SLOAD TIMESTAMP LT PUSH2 0xF84 JUMP JUMPDEST PUSH1 0x1 SLOAD CALLVALUE LT PUSH2 0xAC6 JUMPI DUP3 DUP6 MSTORE PUSH1 0x9 DUP5 MSTORE DUP1 DUP6 KECCAK256 SLOAD PUSH2 0xA78 JUMPI SWAP2 PUSH1 0x60 SWAP2 PUSH32 0x5CDC4AB8D637538EAD6CC1904D4160343656C8C82BD266635CFD31AC008FFFE0 SWAP4 PUSH2 0xA0C PUSH1 0x5 SLOAD PUSH2 0xFC7 JUMP JUMPDEST PUSH1 0x5 SSTORE DUP3 DUP8 MSTORE PUSH1 0x9 DUP7 MSTORE DUP1 DUP8 KECCAK256 PUSH2 0xA24 CALLVALUE DUP3 SLOAD PUSH2 0xFEC JUMP JUMPDEST SWAP1 SSTORE PUSH2 0xA31 CALLVALUE DUP4 SLOAD PUSH2 0xFEC JUMP JUMPDEST SWAP6 DUP7 DUP1 SWAP4 SSTORE DUP2 MLOAD SWAP4 DUP5 MSTORE CALLVALUE SWAP1 DUP5 ADD MSTORE DUP3 ADD MSTORE LOG1 PUSH1 0x3 SLOAD GT PUSH2 0xA5C JUMPI PUSH1 0x2 PUSH1 0xFF NOT PUSH1 0x8 SLOAD AND OR PUSH1 0x8 SSTORE DUP1 RETURN JUMPDEST PUSH1 0x2 SLOAD TIMESTAMP GT PUSH2 0xA68 JUMPI DUP1 RETURN JUMPDEST PUSH1 0x1 PUSH1 0xFF NOT PUSH1 0x8 SLOAD AND OR PUSH1 0x8 SSTORE DUP1 RETURN JUMPDEST MLOAD PUSH3 0x461BCD PUSH1 0xE5 SHL DUP2 MSTORE SWAP1 DUP2 ADD DUP4 SWAP1 MSTORE PUSH1 0x24 DUP1 DUP3 ADD MSTORE PUSH32 0x436F6E7472696275746F722068617320616C726561647920636F6E7472696275 PUSH1 0x44 DUP3 ADD MSTORE PUSH4 0x74656421 PUSH1 0xE0 SHL PUSH1 0x64 DUP3 ADD MSTORE PUSH1 0x84 SWAP1 REVERT JUMPDEST MLOAD PUSH3 0x461BCD PUSH1 0xE5 SHL DUP2 MSTORE SWAP1 DUP2 ADD DUP4 SWAP1 MSTORE PUSH1 0x1F PUSH1 0x24 DUP3 ADD MSTORE PUSH32 0x436F6E747269627574696F6E20616D6F756E7420697320746F6F206C6F772100 PUSH1 0x44 DUP3 ADD MSTORE PUSH1 0x64 SWAP1 REVERT JUMPDEST PUSH4 0x4E487B71 PUSH1 0xE0 SHL DUP7 MSTORE PUSH1 0x21 DUP4 MSTORE PUSH1 0x24 DUP7 REVERT JUMPDEST DUP5 DUP4 CALLVALUE PUSH2 0x2ED JUMPI DUP2 PUSH1 0x3 NOT CALLDATASIZE ADD SLT PUSH2 0x2ED JUMPI MLOAD SELFBALANCE DUP2 MSTORE PUSH1 0x20 SWAP1 RETURN JUMPDEST POP DUP4 DUP3 CALLVALUE PUSH2 0x2ED JUMPI PUSH1 0x20 DUP1 PUSH1 0x3 NOT CALLDATASIZE ADD SLT PUSH2 0x295 JUMPI CALLER DUP4 MSTORE PUSH1 0x9 DUP2 MSTORE DUP2 DUP4 KECCAK256 SLOAD ISZERO PUSH2 0xC20 JUMPI DUP4 CALLDATALOAD DUP4 MSTORE PUSH1 0xA DUP2 MSTORE DUP2 DUP4 KECCAK256 PUSH1 0x3 DUP2 ADD CALLER DUP6 MSTORE DUP1 DUP4 MSTORE PUSH1 0xFF DUP5 DUP7 KECCAK256 SLOAD AND PUSH2 0xBE8 JUMPI SWAP1 PUSH1 0x2 SWAP2 CALLER DUP7 MSTORE DUP4 MSTORE DUP4 DUP6 KECCAK256 PUSH1 0x1 PUSH1 0xFF NOT DUP3 SLOAD AND OR SWAP1 SSTORE ADD DUP1 SLOAD SWAP1 PUSH1 0x1 DUP3 ADD DUP1 SWAP3 GT PUSH2 0xBD5 JUMPI PUSH32 0xA2925E4595BF873FA82C22A1A89809777347023BF2B502D32710157A5EB8199C SWAP5 SWAP6 POP DUP2 SWAP1 SSTORE DUP3 MLOAD SWAP2 CALLER DUP4 MSTORE DUP3 ADD MSTORE LOG1 DUP1 RETURN JUMPDEST PUSH4 0x4E487B71 PUSH1 0xE0 SHL DUP6 MSTORE PUSH1 0x11 DUP7 MSTORE PUSH1 0x24 DUP6 REVERT JUMPDEST DUP4 MLOAD PUSH3 0x461BCD PUSH1 0xE5 SHL DUP2 MSTORE DUP1 DUP8 ADD DUP5 SWAP1 MSTORE PUSH1 0x12 PUSH1 0x24 DUP3 ADD MSTORE PUSH18 0x596F7520616C726561647920766F74656421 PUSH1 0x70 SHL PUSH1 0x44 DUP3 ADD MSTORE PUSH1 0x64 SWAP1 REVERT JUMPDEST DUP4 SWAP1 PUSH1 0x64 SWAP3 MLOAD SWAP2 PUSH3 0x461BCD PUSH1 0xE5 SHL DUP4 MSTORE DUP3 ADD MSTORE PUSH1 0x1A PUSH1 0x24 DUP3 ADD MSTORE PUSH32 0x4F6E6C7920636F6E7472696275746F722063616E20766F746521000000000000 PUSH1 0x44 DUP3 ADD MSTORE REVERT JUMPDEST DUP5 DUP4 CALLVALUE PUSH2 0x2ED JUMPI DUP2 PUSH1 0x3 NOT CALLDATASIZE ADD SLT PUSH2 0x2ED JUMPI PUSH1 0x20 SWAP1 PUSH1 0x5 SLOAD SWAP1 MLOAD SWAP1 DUP2 MSTORE RETURN JUMPDEST DUP5 DUP4 CALLVALUE PUSH2 0x2ED JUMPI DUP2 PUSH1 0x3 NOT CALLDATASIZE ADD SLT PUSH2 0x2ED JUMPI PUSH1 0x20 SWAP1 PUSH1 0x2 SLOAD SWAP1 MLOAD SWAP1 DUP2 MSTORE RETURN JUMPDEST DUP5 DUP4 DUP4 CALLVALUE PUSH2 0x295 JUMPI PUSH1 0x20 CALLDATASIZE PUSH1 0x3 NOT ADD SLT PUSH2 0x295 JUMPI CALLDATALOAD PUSH1 0x1 PUSH1 0x1 PUSH1 0xA0 SHL SUB DUP2 AND SWAP1 DUP2 SWAP1 SUB PUSH2 0x295 JUMPI DUP3 DUP3 SWAP2 PUSH1 0x20 SWAP5 MSTORE PUSH1 0x9 DUP5 MSTORE KECCAK256 SLOAD SWAP1 MLOAD SWAP1 DUP2 MSTORE RETURN JUMPDEST DUP5 DUP4 CALLVALUE PUSH2 0x2ED JUMPI DUP2 PUSH1 0x3 NOT CALLDATASIZE ADD SLT PUSH2 0x2ED JUMPI PUSH2 0x2E9 SWAP1 PUSH2 0x2D6 PUSH2 0xD8F JUMP JUMPDEST DUP6 SWAP1 CALLVALUE PUSH2 0x2ED JUMPI DUP2 PUSH1 0x3 NOT CALLDATASIZE ADD SLT PUSH2 0x2ED JUMPI SWAP1 SLOAD PUSH1 0x1 PUSH1 0x1 PUSH1 0xA0 SHL SUB AND DUP2 MSTORE PUSH1 0x20 SWAP1 RETURN JUMPDEST SWAP1 PUSH1 0x1 DUP3 DUP2 SHR SWAP3 AND DUP1 ISZERO PUSH2 0xD4D JUMPI JUMPDEST PUSH1 0x20 DUP4 LT EQ PUSH2 0xD37 JUMPI JUMP JUMPDEST PUSH4 0x4E487B71 PUSH1 0xE0 SHL PUSH1 0x0 MSTORE PUSH1 0x22 PUSH1 0x4 MSTORE PUSH1 0x24 PUSH1 0x0 REVERT JUMPDEST SWAP2 PUSH1 0x7F AND SWAP2 PUSH2 0xD2C JUMP JUMPDEST SWAP1 PUSH1 0x1F DUP1 NOT SWAP2 ADD AND DUP2 ADD SWAP1 DUP2 LT PUSH8 0xFFFFFFFFFFFFFFFF DUP3 GT OR PUSH2 0xD79 JUMPI PUSH1 0x40 MSTORE JUMP JUMPDEST PUSH4 0x4E487B71 PUSH1 0xE0 SHL PUSH1 0x0 MSTORE PUSH1 0x41 PUSH1 0x4 MSTORE PUSH1 0x24 PUSH1 0x0 REVERT JUMPDEST PUSH1 0x40 MLOAD SWAP1 PUSH1 0x0 DUP3 PUSH1 0x7 SLOAD SWAP2 PUSH2 0xDA3 DUP4 PUSH2 0xD1D JUMP JUMPDEST DUP1 DUP4 MSTORE PUSH1 0x1 SWAP4 DUP1 DUP6 AND SWAP1 DUP2 ISZERO PUSH2 0xE2B JUMPI POP PUSH1 0x1 EQ PUSH2 0xDCB JUMPI JUMPDEST POP PUSH2 0xDC9 SWAP3 POP SUB DUP4 PUSH2 0xD57 JUMP JUMPDEST JUMP JUMPDEST PUSH1 0x7 PUSH1 0x0 SWAP1 DUP2 MSTORE PUSH32 0xA66CC928B5EDB82AF9BD49922954155AB7B0942694BEA4CE44661D9A8736C688 SWAP5 PUSH1 0x20 SWAP4 POP SWAP1 SWAP2 SWAP1 JUMPDEST DUP2 DUP4 LT PUSH2 0xE13 JUMPI POP POP PUSH2 0xDC9 SWAP4 POP DUP3 ADD ADD CODESIZE PUSH2 0xDBC JUMP JUMPDEST DUP6 SLOAD DUP9 DUP5 ADD DUP6 ADD MSTORE SWAP5 DUP6 ADD SWAP5 DUP8 SWAP5 POP SWAP2 DUP4 ADD SWAP2 PUSH2 0xDFC JUMP JUMPDEST SWAP1 POP PUSH2 0xDC9 SWAP5 POP PUSH1 0x20 SWAP3 POP PUSH1 0xFF NOT AND DUP3 DUP5 ADD MSTORE ISZERO ISZERO PUSH1 0x5 SHL DUP3 ADD ADD CODESIZE PUSH2 0xDBC JUMP JUMPDEST PUSH1 0x40 MLOAD SWAP1 PUSH1 0x0 DUP3 PUSH1 0x6 SLOAD SWAP2 PUSH2 0xE60 DUP4 PUSH2 0xD1D JUMP JUMPDEST DUP1 DUP4 MSTORE PUSH1 0x1 SWAP4 DUP1 DUP6 AND SWAP1 DUP2 ISZERO PUSH2 0xE2B JUMPI POP PUSH1 0x1 EQ PUSH2 0xE85 JUMPI POP PUSH2 0xDC9 SWAP3 POP SUB DUP4 PUSH2 0xD57 JUMP JUMPDEST PUSH1 0x6 PUSH1 0x0 SWAP1 DUP2 MSTORE PUSH32 0xF652222313E28459528D920B65115C16C04F3EFC82AAEDC97BE59F3F377C0D3F SWAP5 PUSH1 0x20 SWAP4 POP SWAP1 SWAP2 SWAP1 JUMPDEST DUP2 DUP4 LT PUSH2 0xECD JUMPI POP POP PUSH2 0xDC9 SWAP4 POP DUP3 ADD ADD CODESIZE PUSH2 0xDBC JUMP JUMPDEST DUP6 SLOAD DUP9 DUP5 ADD DUP6 ADD MSTORE SWAP5 DUP6 ADD SWAP5 DUP8 SWAP5 POP SWAP2 DUP4 ADD SWAP2 PUSH2 0xEB6 JUMP JUMPDEST SWAP2 SWAP1 DUP3 MLOAD SWAP3 DUP4 DUP3 MSTORE PUSH1 0x0 JUMPDEST DUP5 DUP2 LT PUSH2 0xF11 JUMPI POP POP DUP3 PUSH1 0x0 PUSH1 0x20 DUP1 SWAP5 SWAP6 DUP5 ADD ADD MSTORE PUSH1 0x1F DUP1 NOT SWAP2 ADD AND ADD ADD SWAP1 JUMP JUMPDEST PUSH1 0x20 DUP2 DUP4 ADD DUP2 ADD MLOAD DUP5 DUP4 ADD DUP3 ADD MSTORE ADD PUSH2 0xEF0 JUMP JUMPDEST SWAP1 PUSH1 0x3 DUP3 LT ISZERO PUSH2 0xF32 JUMPI MSTORE JUMP JUMPDEST PUSH4 0x4E487B71 PUSH1 0xE0 SHL PUSH1 0x0 MSTORE PUSH1 0x21 PUSH1 0x4 MSTORE PUSH1 0x24 PUSH1 0x0 REVERT JUMPDEST ISZERO PUSH2 0xF4F JUMPI JUMP JUMPDEST PUSH1 0x40 MLOAD PUSH3 0x461BCD PUSH1 0xE5 SHL DUP2 MSTORE PUSH1 0x20 PUSH1 0x4 DUP3 ADD MSTORE PUSH1 0xD PUSH1 0x24 DUP3 ADD MSTORE PUSH13 0x496E76616C6964207374617465 PUSH1 0x98 SHL PUSH1 0x44 DUP3 ADD MSTORE PUSH1 0x64 SWAP1 REVERT JUMPDEST ISZERO PUSH2 0xF8B JUMPI JUMP JUMPDEST PUSH1 0x40 MLOAD PUSH3 0x461BCD PUSH1 0xE5 SHL DUP2 MSTORE PUSH1 0x20 PUSH1 0x4 DUP3 ADD MSTORE PUSH1 0x14 PUSH1 0x24 DUP3 ADD MSTORE PUSH20 0x446561646C696E65206861732070617373656421 PUSH1 0x60 SHL PUSH1 0x44 DUP3 ADD MSTORE PUSH1 0x64 SWAP1 REVERT JUMPDEST PUSH1 0x0 NOT DUP2 EQ PUSH2 0xFD6 JUMPI PUSH1 0x1 ADD SWAP1 JUMP JUMPDEST PUSH4 0x4E487B71 PUSH1 0xE0 SHL PUSH1 0x0 MSTORE PUSH1 0x11 PUSH1 0x4 MSTORE PUSH1 0x24 PUSH1 0x0 REVERT JUMPDEST SWAP2 SWAP1 DUP3 ADD DUP1 SWAP3 GT PUSH2 0xFD6 JUMPI JUMP JUMPDEST ISZERO PUSH2 0x1000 JUMPI JUMP JUMPDEST PUSH1 0x40 MLOAD PUSH3 0x461BCD PUSH1 0xE5 SHL DUP2 MSTORE PUSH1 0x20 PUSH1 0x4 DUP3 ADD MSTORE PUSH1 0x2F PUSH1 0x24 DUP3 ADD MSTORE PUSH32 0x596F7520646F6E7420686176652061636365737320746F20706572666F726D20 PUSH1 0x44 DUP3 ADD MSTORE PUSH15 0x74686973206F7065726174696F6E21 PUSH1 0x88 SHL PUSH1 0x64 DUP3 ADD MSTORE PUSH1 0x84 SWAP1 REVERT INVALID 0x2A 0xF8 0xD6 SIGNEXTEND DUP8 DUP13 0x5E DUP14 0xE5 PUSH29 0x8FF96E03C6CFAB6DE26B47E989757345CC1DCEAAC998A2646970667358 0x22 SLT KECCAK256 SDIV MLOAD 0x2B SWAP4 LT PUSH2 0x8663 COINBASE 0xD8 PUSH22 0xBDA04395EC13F9045EB24A3380B7B2A4BFD609A0FC64 PUSH20 0x6F6C634300081300330000000000000000000000 "},"methodIdentifiers":{"contribute(address)":"73e888fd","contributors(address)":"1f6d4942","createWithdrawRequest(string,uint256,address)":"a46752ae","creator()":"02d05d3f","deadline()":"29dcb0cf","getContractBalance()":"6f9fb98a","getProjectDetails()":"ff3a9c7e","minimumContribution()":"937e09b1","noOfContributors()":"4e260f6f","numOfWithdrawRequests()":"b40141bf","projectDes()":"03c29d58","projectTitle()":"c3e20c9f","raisedAmount()":"c59ee1dc","requestRefund()":"d5cef133","state()":"c19d93fb","targetContribution()":"b82c86d6","voteWithdrawRequest(uint256)":"4e695a37","withdrawRequestedAmount(uint256)":"752e19f9","withdrawRequests(uint256)":"992a7dfb"}}}}}