{
  "_format": "hh-sol-artifact-1",
  "contractName": "Project",
  "sourceName": "contracts/Project.sol",
  "abi": [
    {
      "inputs": [
        {
          "internalType": "address",
          "name": "_creator",
          "type": "address"
        },
        {
          "internalType": "uint256",
          "name": "_minimumContribution",
          "type": "uint256"
        },
        {
          "internalType": "uint256",
          "name": "_deadline",
          "type": "uint256"
        },
        {
          "internalType": "uint256",
          "name": "_targetContribution",
          "type": "uint256"
        },
        {
          "internalType": "string",
          "name": "_projectTitle",
          "type": "string"
        },
        {
          "internalType": "string",
          "name": "_projectDes",
          "type": "string"
        }
      ],
      "stateMutability": "nonpayable",
      "type": "constructor"
    },
    {
      "anonymous": false,
      "inputs": [
        {
          "indexed": false,
          "internalType": "uint256",
          "name": "requestId",
          "type": "uint256"
        },
        {
          "indexed": false,
          "internalType": "string",
          "name": "description",
          "type": "string"
        },
        {
          "indexed": false,
          "internalType": "uint256",
          "name": "amount",
          "type": "uint256"
        },
        {
          "indexed": false,
          "internalType": "uint256",
          "name": "noOfVotes",
          "type": "uint256"
        },
        {
          "indexed": false,
          "internalType": "bool",
          "name": "isCompleted",
          "type": "bool"
        },
        {
          "indexed": false,
          "internalType": "address",
          "name": "recipient",
          "type": "address"
        }
      ],
      "name": "AmountWithdrawSuccessful",
      "type": "event"
    },
    {
      "anonymous": false,
      "inputs": [
        {
          "indexed": false,
          "internalType": "address",
          "name": "contributor",
          "type": "address"
        },
        {
          "indexed": false,
          "internalType": "uint256",
          "name": "amount",
          "type": "uint256"
        },
        {
          "indexed": false,
          "internalType": "uint256",
          "name": "currentTotal",
          "type": "uint256"
        }
      ],
      "name": "FundingReceived",
      "type": "event"
    },
    {
      "anonymous": false,
      "inputs": [
        {
          "indexed": false,
          "internalType": "uint256",
          "name": "requestId",
          "type": "uint256"
        },
        {
          "indexed": false,
          "internalType": "string",
          "name": "description",
          "type": "string"
        },
        {
          "indexed": false,
          "internalType": "uint256",
          "name": "amount",
          "type": "uint256"
        },
        {
          "indexed": false,
          "internalType": "uint256",
          "name": "noOfVotes",
          "type": "uint256"
        },
        {
          "indexed": false,
          "internalType": "bool",
          "name": "isCompleted",
          "type": "bool"
        },
        {
          "indexed": false,
          "internalType": "address",
          "name": "recipient",
          "type": "address"
        }
      ],
      "name": "WithdrawRequestCreated",
      "type": "event"
    },
    {
      "anonymous": false,
      "inputs": [
        {
          "indexed": false,
          "internalType": "address",
          "name": "voter",
          "type": "address"
        },
        {
          "indexed": false,
          "internalType": "uint256",
          "name": "totalVote",
          "type": "uint256"
        }
      ],
      "name": "WithdrawVote",
      "type": "event"
    },
    {
      "inputs": [
        {
          "internalType": "address",
          "name": "_contributor",
          "type": "address"
        }
      ],
      "name": "contribute",
      "outputs": [],
      "stateMutability": "payable",
      "type": "function"
    },
    {
      "inputs": [
        {
          "internalType": "address",
          "name": "",
          "type": "address"
        }
      ],
      "name": "contributors",
      "outputs": [
        {
          "internalType": "uint256",
          "name": "",
          "type": "uint256"
        }
      ],
      "stateMutability": "view",
      "type": "function"
    },
    {
      "inputs": [
        {
          "internalType": "string",
          "name": "_description",
          "type": "string"
        },
        {
          "internalType": "uint256",
          "name": "_amount",
          "type": "uint256"
        },
        {
          "internalType": "address payable",
          "name": "_recipient",
          "type": "address"
        }
      ],
      "name": "createWithdrawRequest",
      "outputs": [],
      "stateMutability": "nonpayable",
      "type": "function"
    },
    {
      "inputs": [],
      "name": "creator",
      "outputs": [
        {
          "internalType": "address payable",
          "name": "",
          "type": "address"
        }
      ],
      "stateMutability": "view",
      "type": "function"
    },
    {
      "inputs": [],
      "name": "deadline",
      "outputs": [
        {
          "internalType": "uint256",
          "name": "",
          "type": "uint256"
        }
      ],
      "stateMutability": "view",
      "type": "function"
    },
    {
      "inputs": [],
      "name": "getContractBalance",
      "outputs": [
        {
          "internalType": "uint256",
          "name": "",
          "type": "uint256"
        }
      ],
      "stateMutability": "view",
      "type": "function"
    },
    {
      "inputs": [],
      "name": "getProjectDetails",
      "outputs": [
        {
          "internalType": "address payable",
          "name": "projectStarter",
          "type": "address"
        },
        {
          "internalType": "uint256",
          "name": "minContribution",
          "type": "uint256"
        },
        {
          "internalType": "uint256",
          "name": "projectDeadline",
          "type": "uint256"
        },
        {
          "internalType": "uint256",
          "name": "goalAmount",
          "type": "uint256"
        },
        {
          "internalType": "uint256",
          "name": "completedTime",
          "type": "uint256"
        },
        {
          "internalType": "uint256",
          "name": "currentAmount",
          "type": "uint256"
        },
        {
          "internalType": "string",
          "name": "title",
          "type": "string"
        },
        {
          "internalType": "string",
          "name": "desc",
          "type": "string"
        },
        {
          "internalType": "enum Project.State",
          "name": "currentState",
          "type": "uint8"
        },
        {
          "internalType": "uint256",
          "name": "balance",
          "type": "uint256"
        }
      ],
      "stateMutability": "view",
      "type": "function"
    },
    {
      "inputs": [],
      "name": "minimumContribution",
      "outputs": [
        {
          "internalType": "uint256",
          "name": "",
          "type": "uint256"
        }
      ],
      "stateMutability": "view",
      "type": "function"
    },
    {
      "inputs": [],
      "name": "noOfContributors",
      "outputs": [
        {
          "internalType": "uint256",
          "name": "",
          "type": "uint256"
        }
      ],
      "stateMutability": "view",
      "type": "function"
    },
    {
      "inputs": [],
      "name": "numOfWithdrawRequests",
      "outputs": [
        {
          "internalType": "uint256",
          "name": "",
          "type": "uint256"
        }
      ],
      "stateMutability": "view",
      "type": "function"
    },
    {
      "inputs": [],
      "name": "projectDes",
      "outputs": [
        {
          "internalType": "string",
          "name": "",
          "type": "string"
        }
      ],
      "stateMutability": "view",
      "type": "function"
    },
    {
      "inputs": [],
      "name": "projectTitle",
      "outputs": [
        {
          "internalType": "string",
          "name": "",
          "type": "string"
        }
      ],
      "stateMutability": "view",
      "type": "function"
    },
    {
      "inputs": [],
      "name": "raisedAmount",
      "outputs": [
        {
          "internalType": "uint256",
          "name": "",
          "type": "uint256"
        }
      ],
      "stateMutability": "view",
      "type": "function"
    },
    {
      "inputs": [],
      "name": "requestRefund",
      "outputs": [
        {
          "internalType": "bool",
          "name": "",
          "type": "bool"
        }
      ],
      "stateMutability": "nonpayable",
      "type": "function"
    },
    {
      "inputs": [],
      "name": "state",
      "outputs": [
        {
          "internalType": "enum Project.State",
          "name": "",
          "type": "uint8"
        }
      ],
      "stateMutability": "view",
      "type": "function"
    },
    {
      "inputs": [],
      "name": "targetContribution",
      "outputs": [
        {
          "internalType": "uint256",
          "name": "",
          "type": "uint256"
        }
      ],
      "stateMutability": "view",
      "type": "function"
    },
    {
      "inputs": [
        {
          "internalType": "uint256",
          "name": "_requestId",
          "type": "uint256"
        }
      ],
      "name": "voteWithdrawRequest",
      "outputs": [],
      "stateMutability": "nonpayable",
      "type": "function"
    },
    {
      "inputs": [
        {
          "internalType": "uint256",
          "name": "_requestId",
          "type": "uint256"
        }
      ],
      "name": "withdrawRequestedAmount",
      "outputs": [],
      "stateMutability": "nonpayable",
      "type": "function"
    },
    {
      "inputs": [
        {
          "internalType": "uint256",
          "name": "",
          "type": "uint256"
        }
      ],
      "name": "withdrawRequests",
      "outputs": [
        {
          "internalType": "string",
          "name": "description",
          "type": "string"
        },
        {
          "internalType": "uint256",
          "name": "amount",
          "type": "uint256"
        },
        {
          "internalType": "uint256",
          "name": "noOfVotes",
          "type": "uint256"
        },
        {
          "internalType": "bool",
          "name": "isCompleted",
          "type": "bool"
        },
        {
          "internalType": "address payable",
          "name": "recipient",
          "type": "address"
        }
      ],
      "stateMutability": "view",
      "type": "function"
    }
  ],
  "bytecode": "0x6080604052346200037757620014de803803806200001d816200037c565b92833981019060c081830312620003775780516001600160a01b0381169081900362000377576020928383015191604084015190606085015160808601519560018060401b03968781116200037757856200007a918301620003b8565b9460a08201518881116200037757620000949201620003b8565b6008805460ff191690556000600b81905580546001600160a01b0319169093178355600195865560029390935560035582518581116200036357600654938585811c9516801562000358575b8886101462000344578190601f95868111620002f0575b5088908683116001146200028a5784926200027e575b5050600019600383901b1c191690851b176006555b81519485116200026a576007548481811c911680156200025f575b878210146200024b5783811162000202575b5085928511600114620001995793945084929190836200018d575b50501b916000199060031b1c1916176007555b6040516110b390816200042b8239f35b0151925038806200016a565b6007815285812093958591601f198316915b88838310620001e75750505010620001cd575b505050811b016007556200017d565b015160001960f88460031b161c19169055388080620001be565b858701518855909601959485019487935090810190620001ab565b600782528682208480880160051c82019289891062000241575b0160051c019085905b828110620002355750506200014f565b83815501859062000225565b925081926200021c565b634e487b7160e01b82526022600452602482fd5b90607f16906200013d565b634e487b7160e01b81526041600452602490fd5b0151905038806200010d565b600685528985208894509190601f198416865b8c828210620002d95750508411620002bf575b505050811b0160065562000122565b015160001960f88460031b161c19169055388080620002b0565b8385015186558b979095019493840193016200029d565b909150600684528884208680850160051c8201928b86106200033a575b918991869594930160051c01915b8281106200032b575050620000f7565b8681558594508991016200031b565b925081926200030d565b634e487b7160e01b83526022600452602483fd5b94607f1694620000e0565b634e487b7160e01b82526041600452602482fd5b600080fd5b6040519190601f01601f191682016001600160401b03811183821017620003a257604052565b634e487b7160e01b600052604160045260246000fd5b919080601f84011215620003775782516001600160401b038111620003a257602090620003ee601f8201601f191683016200037c565b92818452828287010111620003775760005b8181106200041657508260009394955001015290565b85810183015184820184015282016200040056fe60806040908082526004918236101561001757600080fd5b60009260e0928435841c90816302d05d3f14610cf95750806303c29d5814610cdb5780631f6d494214610ca057806329dcb0cf14610c815780634e260f6f14610c625780634e695a3714610b365780636f9fb98a14610b1b57806373e888fd14610978578063752e19f914610728578063937e09b114610709578063992a7dfb14610612578063a46752ae14610358578063b40141bf14610339578063b82c86d61461031a578063c19d93fb146102f1578063c3e20c9f146102b8578063c59ee1dc14610299578063d5cef1331461019d5763ff3a9c7e146100f857600080fd5b3461019957836003193601126101995761018f61018360209560018060a01b039054169460015493610176600254916003549054610134610e4c565b9161013d610d8f565b9460ff600854169a479a81519e8f9e8f90815201528c015260608b01524260808b015260a08a01526101408060c08b0152890190610ee5565b9187830390880152610ee5565b92610100850190610f25565b6101208301520390f35b8380fd5b8483833461029557826003193601126102955760ff6008541660038110156102825760016101cb9114610f48565b6101d86002544210610f84565b33835260096020528183205415610232575033825260096020528180808084812054818115610229575b3390f11561021f5760209133815260098352818120555160018152f35b51903d90823e3d90fd5b506108fc610202565b6020608492519162461bcd60e51b8352820152602560248201527f596f7520646f6e74206861766520616e7920636f6e747269627574656420616d6044820152646f756e742160d81b6064820152fd5b634e487b7160e01b845260218252602484fd5b8280fd5b8483833461029557826003193601126102955760209250549051908152f35b8483346102ed57816003193601126102ed576102e9906102d6610e4c565b9051918291602083526020830190610ee5565b0390f35b5080fd5b8483346102ed57816003193601126102ed5760209061031860ff6008541691518092610f25565bf35b8483346102ed57816003193601126102ed576020906003549051908152f35b8483346102ed57816003193601126102ed57602090600b549051908152f35b508382346102ed5760603660031901126102ed5782359267ffffffffffffffff9182851161019957366023860112156101995784820135928084116105ff57815192602094601f19976103b2878a601f8501160187610d57565b81865236602483830101116105fb57818892602489930183890137860101526044356001600160a01b038181169360243593918584036105f7576103fa908a54163314610ff9565b60ff6008541660038110156105e45760026104159114610f48565b600b5490818a52600a895261042c878b2092610fc7565b600b5587519081116105d1576104428254610d1d565b601f811161058e575b50889a601f821160011461050f5750808a9b7f9883a4e4f8698e4cc93bafb8d0d2376cb8c51dd322cb9fd80d02c691fcdea5039b91610504575b508160011b916000199060031b1c19161781555b60018101849055600281018a90550180546001600160a81b03191660089290921b610100600160a81b0316919091179055600b54835190815260c09581018690529485946104e991860190610ee5565b9284015285606084015285608084015260a08301520390a180f35b90508801518c610485565b81169a828b52898b209b8b5b81811061057757509b82916001937f9883a4e4f8698e4cc93bafb8d0d2376cb8c51dd322cb9fd80d02c691fcdea5039d9e1061055e575b5050811b018155610499565b8a015160001960f88460031b161c191690558c80610552565b8a8301518e556001909d019c918b01918b0161051b565b828b52898b20601f830160051c8101918b84106105c7575b601f0160051c01905b8181106105bc575061044b565b8b81556001016105af565b90915081906105a6565b634e487b7160e01b8a526041835260248afd5b634e487b7160e01b8a526021835260248afd5b8980fd5b8780fd5b634e487b7160e01b855260418352602485fd5b8483833461029557602090816003193601126101995780358452600a82528284208351938582549061064382610d1d565b9081885260019283811690816000146106eb57506001146106b7575b505061067086610690980387610d57565b82015492600283015492015492815196879660a0885260a0880190610ee5565b9486015284015260ff81161515606084015260081c6001600160a01b031660808301520390f35b9097508381528581205b8882106106d857508601850196506106708661065f565b80548883018801529086019082016106c1565b60ff1916888a01525050151560051b8601850196506106708661065f565b8483346102ed57816003193601126102ed576020906001549051908152f35b50903461019957602090816003193601126109745782359260018060a01b0392610756848854163314610ff9565b60ff6008541660038110156109615760026107719114610f48565b848752600a8152828720908282019384549760ff891661092257600284019283549560055496600197881c116108c257508a8080808989019d8e54908d839183156108b8575b60081c1690f1156108ae5760c09060ff199a878c8a5416178099555494549584519a8b5282828c01528c9b8154908c6107ef83610d1d565b9501859052818a1691821561088557505060011461083d575b8c60008051602061105e8339815191528c808f8e8e8e8e8e8e8701526060860152608085015260081c1660a08301520390a180f35b909293999a508b52818b20918b925b8284106108725750505088010196958160008051602061105e8339815191528838610808565b8054848d0186015292810192870161084c565b16858d0152505050151560051b88010197508160008051602061105e8339815191528838610808565b82513d8c823e3d90fd5b6108fc92506107b7565b60849184519162461bcd60e51b8352820152603660248201527f4174206c656173742035302520636f6e7472696275746f72206e65656420746f604482015275081d9bdd1948199bdc881d1a1a5cc81c995c5d595cdd60521b6064820152fd5b815162461bcd60e51b8152808601849052601960248201527814995c5d595cdd08185b1c9958591e4818dbdb5c1b195d1959603a1b6044820152606490fd5b634e487b7160e01b885260218352602488fd5b8480fd5b5060209250366003190183136101995780356001600160a01b03811692908390036109745760ff600854166003811015610b08576109b69015610f48565b6109c36002544210610f84565b6001543410610ac6578285526009845280852054610a7857916060917f5cdc4ab8d637538ead6cc1904d4160343656c8c82bd266635cfd31ac008fffe093610a0c600554610fc7565b60055582875260098652808720610a24348254610fec565b9055610a31348354610fec565b958680935581519384523490840152820152a160035411610a5c57600260ff19600854161760085580f35b6002544211610a685780f35b600160ff19600854161760085580f35b5162461bcd60e51b81529081018390526024808201527f436f6e7472696275746f722068617320616c726561647920636f6e74726962756044820152637465642160e01b6064820152608490fd5b5162461bcd60e51b8152908101839052601f60248201527f436f6e747269627574696f6e20616d6f756e7420697320746f6f206c6f7721006044820152606490fd5b634e487b7160e01b865260218352602486fd5b8483346102ed57816003193601126102ed5751478152602090f35b508382346102ed5760208060031936011261029557338352600981528183205415610c205783358352600a81528183206003810133855280835260ff8486205416610be857906002913386528352838520600160ff198254161790550180549060018201809211610bd5577fa2925e4595bf873fa82c22a1a89809777347023bf2b502d32710157a5eb8199c949550819055825191338352820152a180f35b634e487b7160e01b855260118652602485fd5b835162461bcd60e51b81528087018490526012602482015271596f7520616c726561647920766f7465642160701b6044820152606490fd5b8390606492519162461bcd60e51b8352820152601a60248201527f4f6e6c7920636f6e7472696275746f722063616e20766f7465210000000000006044820152fd5b8483346102ed57816003193601126102ed576020906005549051908152f35b8483346102ed57816003193601126102ed576020906002549051908152f35b8483833461029557602036600319011261029557356001600160a01b0381169081900361029557828291602094526009845220549051908152f35b8483346102ed57816003193601126102ed576102e9906102d6610d8f565b8590346102ed57816003193601126102ed5790546001600160a01b03168152602090f35b90600182811c92168015610d4d575b6020831014610d3757565b634e487b7160e01b600052602260045260246000fd5b91607f1691610d2c565b90601f8019910116810190811067ffffffffffffffff821117610d7957604052565b634e487b7160e01b600052604160045260246000fd5b6040519060008260075491610da383610d1d565b808352600193808516908115610e2b5750600114610dcb575b50610dc992500383610d57565b565b600760009081527fa66cc928b5edb82af9bd49922954155ab7b0942694bea4ce44661d9a8736c68894602093509091905b818310610e13575050610dc9935082010138610dbc565b85548884018501529485019487945091830191610dfc565b9050610dc994506020925060ff191682840152151560051b82010138610dbc565b6040519060008260065491610e6083610d1d565b808352600193808516908115610e2b5750600114610e855750610dc992500383610d57565b600660009081527ff652222313e28459528d920b65115c16c04f3efc82aaedc97be59f3f377c0d3f94602093509091905b818310610ecd575050610dc9935082010138610dbc565b85548884018501529485019487945091830191610eb6565b919082519283825260005b848110610f11575050826000602080949584010152601f8019910116010190565b602081830181015184830182015201610ef0565b906003821015610f325752565b634e487b7160e01b600052602160045260246000fd5b15610f4f57565b60405162461bcd60e51b815260206004820152600d60248201526c496e76616c696420737461746560981b6044820152606490fd5b15610f8b57565b60405162461bcd60e51b8152602060048201526014602482015273446561646c696e6520686173207061737365642160601b6044820152606490fd5b6000198114610fd65760010190565b634e487b7160e01b600052601160045260246000fd5b91908201809211610fd657565b1561100057565b60405162461bcd60e51b815260206004820152602f60248201527f596f7520646f6e7420686176652061636365737320746f20706572666f726d2060448201526e74686973206f7065726174696f6e2160881b6064820152608490fdfe2af8d60b878c5e8de57c8ff96e03c6cfab6de26b47e989757345cc1dceaac998a264697066735822122005512b931061866341d875bda04395ec13f9045eb24a3380b7b2a4bfd609a0fc64736f6c63430008130033",
  "linkReferences": {},
  "deployedLinkReferences": {}
}